:100000000C945D000C9485000C9485000C94850084
:100010000C9485000C9485000C9485000C9485004C
:100020000C9485000C9485000C9485000C9485003C
:100030000C9485000C9485000C9485000C9485002C
:100040000C94D3030C9485000C94A1030C947B03B3
:100050000C9485000C9485000C9485000C9485000C
:100060000C9485000C94850000000008000201003B
:100070000003040700000000000000000000000072
:10008000250028002B0000000000240027002A0083
:10009000040404040404040402020202020203032E
:1000A0000303030301020408102040800102040836
:1000B00010200102040810201D0411241FBECFEFE0
:1000C000D8E0DEBFCDBF11E0A0E0B1E0ECEAF4E1A2
:1000D00002C005900D92AA3BB107D9F722E0AAEB26
:1000E000B1E001C01D92A339B207E1F710E0CDE500
:1000F000D0E004C02197FE010E944E0ACC35D10702
:10010000C9F70E9483040C94540A0C94000090E0F8
:10011000FC01EC55FF4F249180579F4FFC018491C7
:10012000882399F090E0880F991FFC01EA57FF4F50
:10013000A591B491FC01E458FF4F859194918FB73C
:10014000F894EC91E22BEC938FBF0895E09191022B
:10015000F0919202309709F009948E3008F08E5099
:100160008770806480937C0080917A0080648093A3
:100170007A0080917A0086FDFCCF80917800909182
:1001800079000895AF92BF92CF92DF92EF92FF92E3
:100190000F931F93CF93DF936C017B018B01040FAF
:1001A000151FEB015E01AE18BF08C017D10759F04B
:1001B0006991D601ED91FC910190F081E02DC6018D
:1001C0000995892B79F7C501DF91CF911F910F9187
:1001D000FF90EF90DF90CF90BF90AF900895FC011B
:1001E000538D448D252F30E0842F90E0821B930B9C
:1001F000541710F0CF96089501970895FC01918D42
:10020000828D981761F0A28DAE0FBF2FB11D5D9644
:100210008C91928D9F5F9F73928F90E008958FEFE6
:100220009FEF0895FC01918D828D981731F0828D9A
:10023000E80FF11D858D90E008958FEF9FEF0895F1
:10024000FC01918D228D892F90E0805C9F4F821B55
:1002500091098F739927089589ED91E00E942001FB
:1002600021E0892B09F420E0822F089580E090E0BE
:10027000892B29F00E942C0181110C940000089513
:10028000FC01A48DA80FB92FB11DA35ABF4F2C910B
:10029000848D90E001968F739927848FA689B78902
:1002A0002C93A089B1898C91837080648C93938DF9
:1002B000848D981306C00288F389E02D80818F7D9C
:1002C00080830895EF92FF920F931F93CF93DF9354
:1002D000EC0181E0888F9B8D8C8D98131AC0E88982
:1002E000F989808185FF15C09FB7F894EE89FF8951
:1002F0006083E889F98980818370806480839FBFEF
:1003000081E090E0DF91CF911F910F91FF90EF90EE
:100310000895F62E0B8D10E00F5F1F4F0F731127FE
:10032000E02E8C8D8E110CC00FB607FCFACFE88939
:10033000F989808185FFF5CFCE010E944001F1CF80
:10034000EB8DEC0FFD2FF11DE35AFF4FF0829FB7AD
:10035000F8940B8FEA89FB8980818062CFCFCF939D
:10036000DF93EC01888D8823B9F0AA89BB89E889DD
:10037000F9898C9185FD03C0808186FD0DC00FB683
:1003800007FCF7CF8C9185FFF2CF808185FFEDCF01
:10039000CE010E944001E9CFDF91CF91089590E016
:1003A000FC01E859FF4F2491FC01EC55FF4F3491BB
:1003B000FC01E057FF4FE491EE23C9F0222339F00E
:1003C000233001F1A8F4213019F1223029F1F0E0B5
:1003D000EE0FFF1FE458FF4FA591B4918FB7F8942B
:1003E000EC91611126C030953E233C938FBF089558
:1003F0002730A9F02830C9F0243049F780918000D7
:100400008F7D03C0809180008F7780938000DFCF45
:1004100084B58F7784BDDBCF84B58F7DFBCF809192
:10042000B0008F778093B000D2CF8091B0008F7DE5
:10043000F9CF3E2BDACF3FB7F8948091BB01909172
:10044000BC01A091BD01B091BE0126B5A89B05C01D
:100450002F3F19F00196A11DB11D3FBFBA2FA92F43
:10046000982F8827BC01CD01620F711D811D911D40
:1004700042E0660F771F881F991F4A95D1F70895AC
:10048000FC0101900020E9F73197AF01481B590B9F
:10049000BC0189ED91E00C94C2008F929F92AF92C3
:1004A000BF920F931F93CF93DF93CDB7DEB7A19782
:1004B0000FB6F894DEBF0FBECDBF19A2423008F4CC
:1004C0004AE08E010F5D1F4F842E912CB12CA12C80
:1004D000A50194010E942C0AE62FB901CA01EA3055
:1004E000F4F4E05DD801EE938D01232B242B252B12
:1004F00079F790E080E0109719F0CD010E9440025A
:10050000A1960FB6F894DEBF0FBECDBFDF91CF919D
:100510001F910F91BF90AF909F908F900895E95CCD
:10052000E1CFCF93DF930E944002EC0182E191E0A2
:100530000E9440028C0F9D1FDF91CF9108954F9232
:100540005F926F927F928F929F92AF92BF92CF9263
:10055000DF92EF92FF920F931F93CF936B017C0179
:10056000742EAC019B010E94120A882399F085E148
:1005700091E0CF911F910F91FF90EF90DF90CF907E
:10058000BF90AF909F908F907F906F905F904F90B3
:100590000C94400246015701E894B7F82FEF3FEF63
:1005A0004FE75FE7C501B4010E94120A81110DC037
:1005B0002FEF3FEF4FE75FE7C501B4010E94FB0754
:1005C00018161CF489E191E0D4CF2FEF3FEF4FE7ED
:1005D0005FE4C701B6010E945A0918161CF48DE1A8
:1005E00091E0C7CF2FEF3FEF4FE75FECC701B601B8
:1005F0000E94FB0787FDF3CF20E030E0A901C7018F
:10060000B6010E94FB0710E000E087FF0AC06DE220
:1006100089ED91E00E9462018C01F7FAF094F7F8FD
:10062000F094C0E060E070E080E09FE37C1641F071
:1006300020E030E040E251E40E940008CF5FF6CFB6
:10064000A70196010E948F072B013C010E947908A7
:100650004B015C014AE00E944D027C01E00EF11E5C
:10066000CC23C1F1C501B4010E94A8089B01AC01D3
:10067000C301B2010E948E074B015C016EE289ED5D
:1006800091E00E946201E80EF91EC15018F120E0CD
:1006900030E040E251E4C501B4010E945F092B0142
:1006A0003C010E9479084B01B12CA12C4AE0C50104
:1006B000B4010E944D02E80EF91EC501B4010E946A
:1006C000A8089B01AC01C301B2010E948E074B0137
:1006D0005C01DBCFC701CF911F910F91FF90EF908D
:1006E000DF90CF90BF90AF909F908F907F906F9052
:1006F0005F904F9008951F920F920FB60F921124A2
:100700002F933F934F935F936F937F938F939F9319
:10071000AF93BF93EF93FF9389ED91E00E94400167
:10072000FF91EF91BF91AF919F918F917F916F91C9
:100730005F914F913F912F910F900FBE0F901F909F
:1007400018951F920F920FB60F9211242F938F932B
:100750009F93EF93FF93E091E901F091EA0180818B
:10076000E091EF01F091F00182FD1BC0908180913A
:10077000F2018F5F8F732091F301821741F0E091B6
:10078000F201F0E0E752FE4F958F8093F201FF9166
:10079000EF919F918F912F910F900FBE0F901F900F
:1007A00018958081F4CF1F920F920FB60F921124EB
:1007B0002F933F938F939F93AF93BF938091BF01EC
:1007C0009091C001A091C101B091C2013091BA01D4
:1007D00023E0230F2D3758F50196A11DB11D20935D
:1007E000BA018093BF019093C001A093C101B0935F
:1007F000C2018091BB019091BC01A091BD01B0915B
:10080000BE010196A11DB11D8093BB019093BC0157
:10081000A093BD01B093BE01BF91AF919F918F9105
:100820003F912F910F900FBE0F901F90189526E8C3
:10083000230F0296A11DB11DD2CFE9EDF1E0138285
:10084000128288EE93E0A0E0B0E084839583A683D3
:10085000B78384E091E09183808385EC90E0958775
:10086000848784EC90E09787868780EC90E0918B7A
:10087000808B81EC90E0938B828B82EC90E0958B67
:10088000848B86EC90E0978B868B118E128E138E64
:10089000148EE6E7F2E080E090E0A0E8BFE3868B0C
:1008A000978BA08FB18F128E8EE0808380E090E0D6
:1008B000A8ECB2E483879487A587B68783EF94E09A
:1008C000A5E3BFE387839087A187B28785E1858B06
:1008D00080E092E09283818380E090E0A9EBBEE328
:1008E00083839483A583B68380E090E4A7E6B0E495
:1008F0008787908BA18BB28B80E091E0948B838B68
:10090000148E138E0895CF93DF9300D000D0CDB70F
:10091000DEB7789484B5826084BD84B5816084BD7F
:1009200085B5826085BD85B5816085BD80916E008D
:10093000816080936E0010928100809181008260BE
:1009400080938100809181008160809381008091FB
:1009500080008160809380008091B10084608093EA
:10096000B1008091B00081608093B00080917A00E6
:10097000846080937A0080917A00826080937A000C
:1009800080917A00816080937A0080917A008068FB
:1009900080937A001092C100E091E901F091EA01A0
:1009A00082E08083E091E501F091E6011082E09120
:1009B000E701F091E8018FEC80831092F101E09162
:1009C000ED01F091EE0186E08083E091EB01F09182
:1009D000EC01808180618083E091EB01F091EC017A
:1009E000808188608083E091EB01F091EC0180814F
:1009F00080688083E091EB01F091EC0180818F7D34
:100A0000808381E291E00E9491028FE491E00E9454
:100A100040026091890270918A0290E080E04AE091
:100A20000E944D0282E191E00E94400287E00E9414
:100A3000870061E087E00E94CF0189E00E94870083
:100A400060E089E00E94CF012FB7F8948091BF0148
:100A50009091C001A091C101B091C2012FBF8093BC
:100A6000D5019093D601A093D701B093D8012FB7A9
:100A7000F8948091BF019091C001A091C101B09103
:100A8000C2012FBF8093CD019093CE01A093CF01DF
:100A9000B093D00192E3292E312C60918B0270E04B
:100AA00090E080E00E94AA082091790230917A02B9
:100AB00040917B0250917C020E9400086B017C01F6
:100AC00020E030E0A9010E945A0920E030E040E037
:100AD0005FE387FD5DC0C701B6010E948F070E94DA
:100AE00072082B01809176020E94A6007C010E9470
:100AF0001B024B015C01670110E000E0712C612CCE
:100B00000E941B02681979098A099B0960327E4498
:100B10008105910508F044C03FEF631A730A809184
:100B200076020E94A6009A8389838091900288238E
:100B300061F0809176020E94A60049815A81480F97
:100B4000591F569547955A83498389819A818C15F7
:100B50009D051CF1E816F9060CF47C0180918902D0
:100B600090918A02A981BA81A81BB90BBA83A98383
:100B7000B7FF05C0B195A195B109BA83A9832981B1
:100B80003A814216530608F4BBCF0F5F1F4FB8CF10
:100B9000C701B6010E948E07A2CFC980DA80DECFDE
:100BA000A7014C195D095A834983B80190E080E0A0
:100BB0000E94A8084B015C01B30190E080E00E9414
:100BC000A8082B013C01C0907D02D0907E02E090ED
:100BD0007F02F09080022DEC3CEC4CEC5CE30E9438
:100BE0005F099B01AC01C501B4010E945A091816A6
:100BF000C4F4A3019201C501B4010E9400089B0145
:100C0000AC0160E070E080E89FE30E948E070E94E4
:100C1000D2099B01AC01C701B6010E945F096B01BB
:100C20007C01A981BA81BD01BB0F880B990B0E9481
:100C3000AA08A70196010E945F0920E030E0A901FF
:100C40000E948F0720E030E040E05FE30E945F09F0
:100C5000209185023091860240918702509188024E
:100C60000E945F0920E030E04AE754E40E94000857
:100C70006B017C0120E030E0A9010E945A0920E0CC
:100C800030E046E653E418160CF0B3C0C701B601D5
:100C90000E945F094B015C018FB7F8944090BF013F
:100CA0005090C0016090C1017090C2018FBF8091CF
:100CB000D5019091D601A091D701B091D801A3019F
:100CC0009201281B390B4A0B5B0BCA01B9010E9428
:100CD000A80820E03AEB4BE55AE40E940008A50181
:100CE00094010E945F092091D1013091D20140917D
:100CF000D3015091D4010E948F0769837A838B833B
:100D00009C836093D1017093D2018093D30190931F
:100D1000D4014092D5015092D6016092D7017092D1
:100D2000D8018091CD019091CE01A091CF01B091D9
:100D3000D001A3019201281B390B4A0B5B0BDA018E
:100D4000C901803D9740A105B10578F14092CD01E0
:100D50005092CE016092CF017092D00181E691E075
:100D60000E94400243E0C701B6010E949F028BE649
:100D700091E00E94400242E0C501B4010E949F023E
:100D800087E791E00E94400220E030E04AE754E427
:100D900069817A818B819C810E94000845E00E94D4
:100DA0009F0284E891E00E94910220E030E0A901D6
:100DB000C701B6010E945A091816FCF42DEC3CEC50
:100DC0004CE45EE3C701B6010E945A091816FCF014
:100DD00061E087E00E94CF0144E650E05093CC01EF
:100DE0004093CB0184E893E09093CA018093C901BA
:100DF00033C0C701B60190584BCF2DEC3CEC4CE40E
:100E00005EEBC701B6010E94FB0787FFE1CF80912F
:100E1000CD019091CE01A091CF01B091D001A3015D
:100E20009201281B390B4A0B5B0BDA01C901803D8B
:100E30009740A105B10520F088E891E00E94910259
:100E400060E087E00E94CF013092CC012092CB017C
:100E50003092CA012092C9018091C7019091C801C6
:100E60000097C1F58091C3019091C401A091C50183
:100E7000B091C601B301A201481B590B6A0B7B0B51
:100E80008091C9019091CA01B0E0A0E048175907CC
:100E90006A077B0790F061E089E00E94CF01A1E042
:100EA000B0E0B093C801A093C7014092C301509233
:100EB000C4016092C5017092C60120E030E0232B8E
:100EC00009F4EBCD0E942C01882309F4E6CD0E94A1
:100ED0000000E3CD019789F78091C3019091C4018F
:100EE000A091C501B091C601B301A201481B590BE5
:100EF0006A0B7B0B8091CB019091CC01B0E0A0E01C
:100F0000481759076A077B07C0F260E089E00E9432
:100F1000CF011092C8011092C701C7CF5058BB270C
:100F2000AA270E94A6070C9420090E94120938F0F3
:100F30000E94190920F039F49F3F19F426F40C940B
:100F40000F090EF4E095E7FB0C940909E92F0E94C4
:100F5000310958F3BA17620773078407950720F021
:100F600079F4A6F50C9453090EF4E0950B2EBA2FE4
:100F7000A02D0B01B90190010C01CA01A00111249F
:100F8000FF27591B99F0593F50F4503E68F11A164B
:100F9000F040A22F232F342F4427585FF3CF4695DC
:100FA00037952795A795F0405395C9F77EF41F16FE
:100FB000BA0B620B730B840BBAF09150A1F0FF0FC8
:100FC000BB1F661F771F881FC2F70EC0BA0F621FB4
:100FD000731F841F48F4879577956795B795F795A4
:100FE0009E3F08F0B0CF9395880F08F09927EE0F39
:100FF0009795879508950E94E50808F481E0089583
:101000000E9414080C9420090E94190958F00E94AB
:10101000120940F029F45F3F29F00C94090951119D
:101020000C9454090C940F090E94310968F3992318
:10103000B1F3552391F3951B550BBB27AA276217D4
:101040007307840738F09F5F5F4F220F331F441FE1
:10105000AA1FA9F335D00E2E3AF0E0E832D0915015
:101060005040E695001CCAF72BD0FE2F29D0660F02
:10107000771F881FBB1F261737074807AB07B0E845
:1010800009F0BB0B802DBF01FF2793585F4F3AF04B
:101090009E3F510578F00C9409090C9454095F3F68
:1010A000E4F3983ED4F3869577956795B795F795D1
:1010B0009F5FC9F7880F911D9695879597F90895B9
:1010C000E1E0660F771F881FBB1F62177307840755
:1010D000BA0720F0621B730B840BBA0BEE1F88F764
:1010E000E09508950E9479086894B1110C94540910
:1010F00008950E94390988F09F5798F0B92F9927D1
:10110000B751B0F0E1F0660F771F881F991F1AF0F2
:10111000BA95C9F714C0B13091F00E945309B1E0FB
:1011200008950C945309672F782F8827B85F39F0FA
:10113000B93FCCF3869577956795B395D9F73EF48B
:1011400090958095709561957F4F8F4F9F4F089533
:10115000E89409C097FB3EF4909580957095619551
:101160007F4F8F4F9F4F9923A9F0F92F96E9BB2707
:101170009395F695879577956795B795F111F8CF83
:10118000FAF4BB0F11F460FF1BC06F5F7F4F8F4FEE
:101190009F4F16C0882311F096E911C0772321F0E4
:1011A0009EE8872F762F05C0662371F096E8862F7C
:1011B00070E060E02AF09A95660F771F881FDAF7D3
:1011C000880F9695879597F90895990F0008550F00
:1011D000AA0BE0E8FEEF16161706E807F907C0F0BD
:1011E00012161306E407F50798F0621B730B840BC5
:1011F000950B39F40A2661F0232B242B252B21F49F
:1012000008950A2609F4A140A6958FEF811D811D3E
:10121000089597F99F6780E870E060E008959FEF78
:1012200080EC089500240A9416161706180609067D
:10123000089500240A94121613061406050608954C
:10124000092E0394000C11F4882352F0BB0F40F4D4
:10125000BF2B11F460FF04C06F5F7F4F8F4F9F4F14
:10126000089557FD9058440F551F59F05F3F71F096
:101270004795880F97FB991F61F09F3F79F08795FD
:101280000895121613061406551FF2CF4695F1DF86
:1012900008C0161617061806991FF1CF8695710516
:1012A000610508940895E894BB2766277727CB014A
:1012B00097F908950E94E50808F48FEF08950E94B9
:1012C00072090C9420090E94120938F00E94190931
:1012D00020F0952311F00C9409090C940F091124A6
:1012E0000C9454090E94310970F3959FC1F3950F36
:1012F00050E0551F629FF001729FBB27F00DB11D9A
:10130000639FAA27F00DB11DAA1F649F6627B00D29
:10131000A11D661F829F2227B00DA11D621F739F12
:10132000B00DA11D621F839FA00D611D221F749F20
:101330003327A00D611D231F849F600D211D822F67
:10134000762F6A2F11249F5750409AF0F1F088238E
:101350004AF0EE0FFF1FBB1F661F771F881F9150BB
:101360005040A9F79E3F510580F00C9409090C9458
:1013700054095F3FE4F3983ED4F3869577956795DB
:10138000B795F795E7959F5FC1F7FE2B880F911DE5
:101390009695879597F9089519F416F40C940F090A
:1013A0000C94170A0E943909B8F39923C9F3B6F3CC
:1013B0009F57550B87FF0E94250A0024A0E640EAAC
:1013C000900180585695979528F4805C660F771F9A
:1013D000881F20F026173707480730F4621B730B6D
:1013E000840B202931294A2BA69517940794202590
:1013F00031254A2758F7660F771F881F20F02617D8
:101400003707480730F4620B730B840B200D311D36
:10141000411DA09581F7B901842F9158880F9695A9
:10142000879508950E94E508880B990B08959F3FC2
:1014300031F0915020F4879577956795B795880F8F
:10144000911D9695879597F9089591505040660F94
:10145000771F881FD2F70895A1E21A2EAA1BBB1B83
:10146000FD010DC0AA1FBB1FEE1FFF1FA217B30770
:10147000E407F50720F0A21BB30BE40BF50B661F86
:10148000771F881F991F1A9469F76095709580954A
:1014900090959B01AC01BD01CF010895EE0FFF1F98
:0C14A0000590F491E02D0994F894FFCF22
:1014AC00000000006201C200EF00AF012001FE004D
:1014BC0012010D0A006E616E00696E66006F766631
:1014CC0000536D61727420456E65726779204D65AD
:1014DC00746572202D205669727475616C20546588
:1014EC00726D696E616C20446973706C6179005324
:1014FC00656E736F72204D6964506F696E743A201B
:10150C000043757272656E743A200041207C205045
:10151C006F7765723A200057207C20456E657267A4
:10152C00793A20006B576800414C4552543A204898
:10153C006967682063757272656E74206465746582
:10154C00637465642120506F7765722064697363DE
:0A155C006F6E6E65637465642E0007
:00000001FF
